{
  "_format": "hh-sol-artifact-1",
  "contractName": "RaffleContract",
  "sourceName": "contracts/Raffle.sol",
  "abi": [
    {
      "inputs": [
        {
          "internalType": "address",
          "name": "_vrfCoordinatorAddress",
          "type": "address"
        },
        {
          "internalType": "uint64",
          "name": "_subscriptionId",
          "type": "uint64"
        },
        {
          "internalType": "string[]",
          "name": "_students",
          "type": "string[]"
        }
      ],
      "stateMutability": "nonpayable",
      "type": "constructor"
    },
    {
      "inputs": [
        {
          "internalType": "address",
          "name": "have",
          "type": "address"
        },
        {
          "internalType": "address",
          "name": "want",
          "type": "address"
        }
      ],
      "name": "OnlyCoordinatorCanFulfill",
      "type": "error"
    },
    {
      "anonymous": false,
      "inputs": [
        {
          "indexed": true,
          "internalType": "address",
          "name": "sender",
          "type": "address"
        },
        {
          "indexed": false,
          "internalType": "string[2]",
          "name": "students",
          "type": "string[2]"
        }
      ],
      "name": "RaffleDone",
      "type": "event"
    },
    {
      "anonymous": false,
      "inputs": [
        {
          "indexed": false,
          "internalType": "uint256",
          "name": "requestId",
          "type": "uint256"
        },
        {
          "indexed": false,
          "internalType": "uint256[]",
          "name": "randomWords",
          "type": "uint256[]"
        }
      ],
      "name": "RequestFulfilled",
      "type": "event"
    },
    {
      "anonymous": false,
      "inputs": [
        {
          "indexed": false,
          "internalType": "uint256",
          "name": "requestId",
          "type": "uint256"
        },
        {
          "indexed": false,
          "internalType": "uint32",
          "name": "numWords",
          "type": "uint32"
        }
      ],
      "name": "RequestSent",
      "type": "event"
    },
    {
      "inputs": [],
      "name": "getExistingStudents",
      "outputs": [
        {
          "internalType": "string[]",
          "name": "",
          "type": "string[]"
        }
      ],
      "stateMutability": "view",
      "type": "function"
    },
    {
      "inputs": [
        {
          "internalType": "uint256",
          "name": "_requestId",
          "type": "uint256"
        }
      ],
      "name": "getRequestStatus",
      "outputs": [
        {
          "internalType": "bool",
          "name": "fulfilled",
          "type": "bool"
        },
        {
          "internalType": "uint256[]",
          "name": "randomWords",
          "type": "uint256[]"
        }
      ],
      "stateMutability": "view",
      "type": "function"
    },
    {
      "inputs": [],
      "name": "latestRequestId",
      "outputs": [
        {
          "internalType": "uint256",
          "name": "",
          "type": "uint256"
        }
      ],
      "stateMutability": "view",
      "type": "function"
    },
    {
      "inputs": [],
      "name": "raffleStudents",
      "outputs": [],
      "stateMutability": "nonpayable",
      "type": "function"
    },
    {
      "inputs": [
        {
          "internalType": "uint256",
          "name": "requestId",
          "type": "uint256"
        },
        {
          "internalType": "uint256[]",
          "name": "randomWords",
          "type": "uint256[]"
        }
      ],
      "name": "rawFulfillRandomWords",
      "outputs": [],
      "stateMutability": "nonpayable",
      "type": "function"
    },
    {
      "inputs": [
        {
          "internalType": "uint256",
          "name": "",
          "type": "uint256"
        }
      ],
      "name": "reqIdToReqStatus",
      "outputs": [
        {
          "internalType": "bool",
          "name": "fulfilled",
          "type": "bool"
        },
        {
          "internalType": "bool",
          "name": "exists",
          "type": "bool"
        }
      ],
      "stateMutability": "view",
      "type": "function"
    },
    {
      "inputs": [
        {
          "internalType": "uint32",
          "name": "_numWords",
          "type": "uint32"
        }
      ],
      "name": "requestRandomWords",
      "outputs": [
        {
          "internalType": "uint256",
          "name": "requestId",
          "type": "uint256"
        }
      ],
      "stateMutability": "nonpayable",
      "type": "function"
    }
  ],
  "bytecode": "0x60a0604052620186a0600560006101000a81548163ffffffff021916908363ffffffff1602179055506003600560046101000a81548161ffff021916908361ffff1602179055506001600560066101000a81548163ffffffff021916908363ffffffff1602179055503480156200007557600080fd5b5060405162001d9738038062001d9783398181016040528101906200009b919062000583565b828073ffffffffffffffffffffffffffffffffffffffff1660808173ffffffffffffffffffffffffffffffffffffffff16815250505082600160006101000a81548173ffffffffffffffffffffffffffffffffffffffff021916908373ffffffffffffffffffffffffffffffffffffffff16021790555080600690805190602001906200012a9291906200015d565b5081600160146101000a81548167ffffffffffffffff021916908367ffffffffffffffff16021790555050505062000930565b828054828255906000526020600020908101928215620001aa579160200282015b82811115620001a957825182908162000198919062000849565b50916020019190600101906200017e565b5b509050620001b99190620001bd565b5090565b5b80821115620001e15760008181620001d79190620001e5565b50600101620001be565b5090565b508054620001f39062000638565b6000825580601f1062000207575062000228565b601f0160209004906000526020600020908101906200022791906200022b565b5b50565b5b80821115620002465760008160009055506001016200022c565b5090565b6000604051905090565b600080fd5b600080fd5b600073ffffffffffffffffffffffffffffffffffffffff82169050919050565b60006200028b826200025e565b9050919050565b6200029d816200027e565b8114620002a957600080fd5b50565b600081519050620002bd8162000292565b92915050565b600067ffffffffffffffff82169050919050565b620002e281620002c3565b8114620002ee57600080fd5b50565b6000815190506200030281620002d7565b92915050565b600080fd5b6000601f19601f8301169050919050565b7f4e487b7100000000000000000000000000000000000000000000000000000000600052604160045260246000fd5b62000358826200030d565b810181811067ffffffffffffffff821117156200037a57620003796200031e565b5b80604052505050565b60006200038f6200024a565b90506200039d82826200034d565b919050565b600067ffffffffffffffff821115620003c057620003bf6200031e565b5b602082029050602081019050919050565b600080fd5b600080fd5b600067ffffffffffffffff821115620003f957620003f86200031e565b5b62000404826200030d565b9050602081019050919050565b60005b838110156200043157808201518184015260208101905062000414565b60008484015250505050565b6000620004546200044e84620003db565b62000383565b905082815260208101848484011115620004735762000472620003d6565b5b6200048084828562000411565b509392505050565b600082601f830112620004a0576200049f62000308565b5b8151620004b28482602086016200043d565b91505092915050565b6000620004d2620004cc84620003a2565b62000383565b90508083825260208201905060208402830185811115620004f857620004f7620003d1565b5b835b818110156200054657805167ffffffffffffffff81111562000521576200052062000308565b5b80860162000530898262000488565b85526020850194505050602081019050620004fa565b5050509392505050565b600082601f83011262000568576200056762000308565b5b81516200057a848260208601620004bb565b91505092915050565b6000806000606084860312156200059f576200059e62000254565b5b6000620005af86828701620002ac565b9350506020620005c286828701620002f1565b925050604084015167ffffffffffffffff811115620005e657620005e562000259565b5b620005f48682870162000550565b9150509250925092565b600081519050919050565b7f4e487b7100000000000000000000000000000000000000000000000000000000600052602260045260246000fd5b600060028204905060018216806200065157607f821691505b60208210810362000667576200066662000609565b5b50919050565b60008190508160005260206000209050919050565b60006020601f8301049050919050565b600082821b905092915050565b600060088302620006d17fffffffffffffffffffffffffffffffffffffffffffffffffffffffffffffffff8262000692565b620006dd868362000692565b95508019841693508086168417925050509392505050565b6000819050919050565b6000819050919050565b60006200072a620007246200071e84620006f5565b620006ff565b620006f5565b9050919050565b6000819050919050565b620007468362000709565b6200075e620007558262000731565b8484546200069f565b825550505050565b600090565b6200077562000766565b620007828184846200073b565b505050565b5b81811015620007aa576200079e6000826200076b565b60018101905062000788565b5050565b601f821115620007f957620007c3816200066d565b620007ce8462000682565b81016020851015620007de578190505b620007f6620007ed8562000682565b83018262000787565b50505b505050565b600082821c905092915050565b60006200081e60001984600802620007fe565b1980831691505092915050565b60006200083983836200080b565b9150826002028217905092915050565b6200085482620005fe565b67ffffffffffffffff81111562000870576200086f6200031e565b5b6200087c825462000638565b62000889828285620007ae565b600060209050601f831160018114620008c15760008415620008ac578287015190505b620008b885826200082b565b86555062000928565b601f198416620008d1866200066d565b60005b82811015620008fb57848901518255600182019150602085019450602081019050620008d4565b868310156200091b578489015162000917601f8916826200080b565b8355505b6001600288020188555050505b505050505050565b608051611444620009536000396000818161025701526102ab01526114446000f3fe608060405234801561001057600080fd5b506004361061007d5760003560e01c806333353f0d1161005b57806333353f0d146100da578063d8a4676f146100e4578063e726f2e114610115578063f16be074146101455761007d565b80631aa46f59146100825780631d793824146100a05780631fe543e3146100be575b600080fd5b61008a610176565b6040516100979190610ae3565b60405180910390f35b6100a861017c565b6040516100b59190610c50565b60405180910390f35b6100d860048036038101906100d39190610dfa565b610255565b005b6100e2610315565b005b6100fe60048036038101906100f99190610e56565b6105ef565b60405161010c929190610f5c565b60405180910390f35b61012f600480360381019061012a9190610fc8565b61071f565b60405161013c9190610ae3565b60405180910390f35b61015f600480360381019061015a9190610e56565b610924565b60405161016d929190610ff5565b60405180910390f35b60045481565b60606006805480602002602001604051908101604052809291908181526020016000905b8282101561024c5783829060005260206000200180546101bf9061104d565b80601f01602080910402602001604051908101604052809291908181526020018280546101eb9061104d565b80156102385780601f1061020d57610100808354040283529160200191610238565b820191906000526020600020905b81548152906001019060200180831161021b57829003601f168201915b5050505050815260200190600101906101a0565b50505050905090565b7f000000000000000000000000000000000000000000000000000000000000000073ffffffffffffffffffffffffffffffffffffffff163373ffffffffffffffffffffffffffffffffffffffff161461030757337f00000000000000000000000000000000000000000000000000000000000000006040517f1cf993f40000000000000000000000000000000000000000000000000000000081526004016102fe9291906110bf565b60405180910390fd5b6103118282610962565b5050565b600080600060045481526020019081526020016000206040518060600160405290816000820160009054906101000a900460ff161515151581526020016000820160019054906101000a900460ff16151515158152602001600182018054806020026020016040519081016040528092919081815260200182805480156103bb57602002820191906000526020600020905b8154815260200190600101908083116103a7575b5050505050815250509050600060068054905082604001516000815181106103e6576103e56110e8565b5b60200260200101516103f89190611146565b90506000600680549050836040015160018151811061041a576104196110e8565b5b602002602001015161042c9190611146565b90506000604051806040016040528060068561ffff1681548110610453576104526110e8565b5b9060005260206000200180546104689061104d565b80601f01602080910402602001604051908101604052809291908181526020018280546104949061104d565b80156104e15780601f106104b6576101008083540402835291602001916104e1565b820191906000526020600020905b8154815290600101906020018083116104c457829003601f168201915b5050505050815260200160068461ffff1681548110610503576105026110e8565b5b9060005260206000200180546105189061104d565b80601f01602080910402602001604051908101604052809291908181526020018280546105449061104d565b80156105915780601f1061056657610100808354040283529160200191610591565b820191906000526020600020905b81548152906001019060200180831161057457829003601f168201915b505050505081525090503373ffffffffffffffffffffffffffffffffffffffff167ff86f43968870416c4b53b810fa4bd28f5f786fc403c480c7d79d8e2e4d074420826040516105e19190611219565b60405180910390a250505050565b600060606001151560008085815260200190815260200160002060000160019054906101000a900460ff1615151461065c576040517f08c379a000000000000000000000000000000000000000000000000000000000815260040161065390611298565b60405180910390fd5b60008060008581526020019081526020016000206040518060600160405290816000820160009054906101000a900460ff161515151581526020016000820160019054906101000a900460ff161515151581526020016001820180548060200260200160405190810160405280929190818152602001828054801561070057602002820191906000526020600020905b8154815260200190600101908083116106ec575b5050505050815250509050806000015181604001519250925050915091565b6000600160009054906101000a900473ffffffffffffffffffffffffffffffffffffffff1673ffffffffffffffffffffffffffffffffffffffff16635d3b1d30600254600160149054906101000a900467ffffffffffffffff16600560049054906101000a900461ffff16600560009054906101000a900463ffffffff16876040518663ffffffff1660e01b81526004016107be959493929190611320565b6020604051808303816000875af11580156107dd573d6000803e3d6000fd5b505050506040513d601f19601f820116820180604052508101906108019190611388565b90506040518060600160405280600015158152602001600115158152602001600067ffffffffffffffff81111561083b5761083a610cb7565b5b6040519080825280602002602001820160405280156108695781602001602082028036833780820191505090505b5081525060008083815260200190815260200160002060008201518160000160006101000a81548160ff02191690831515021790555060208201518160000160016101000a81548160ff02191690831515021790555060408201518160010190805190602001906108db929190610a60565b50905050806004819055507fcc58b13ad3eab50626c6a6300b1d139cd6ebb1688a7cced9461c2f7e762665ee81836040516109179291906113b5565b60405180910390a1919050565b60006020528060005260406000206000915090508060000160009054906101000a900460ff16908060000160019054906101000a900460ff16905082565b6001151560008084815260200190815260200160002060000160019054906101000a900460ff161515146109cb576040517f08c379a00000000000000000000000000000000000000000000000000000000081526004016109c290611298565b60405180910390fd5b600160008084815260200190815260200160002060000160006101000a81548160ff021916908315150217905550806000808481526020019081526020016000206001019080519060200190610a22929190610a60565b507ffe2e2d779dba245964d4e3ef9b994be63856fd568bf7d3ca9e224755cb1bd54d8282604051610a549291906113de565b60405180910390a15050565b828054828255906000526020600020908101928215610a9c579160200282015b82811115610a9b578251825591602001919060010190610a80565b5b509050610aa99190610aad565b5090565b5b80821115610ac6576000816000905550600101610aae565b5090565b6000819050919050565b610add81610aca565b82525050565b6000602082019050610af86000830184610ad4565b92915050565b600081519050919050565b600082825260208201905092915050565b6000819050602082019050919050565b600081519050919050565b600082825260208201905092915050565b60005b83811015610b64578082015181840152602081019050610b49565b60008484015250505050565b6000601f19601f8301169050919050565b6000610b8c82610b2a565b610b968185610b35565b9350610ba6818560208601610b46565b610baf81610b70565b840191505092915050565b6000610bc68383610b81565b905092915050565b6000602082019050919050565b6000610be682610afe565b610bf08185610b09565b935083602082028501610c0285610b1a565b8060005b85811015610c3e5784840389528151610c1f8582610bba565b9450610c2a83610bce565b925060208a01995050600181019050610c06565b50829750879550505050505092915050565b60006020820190508181036000830152610c6a8184610bdb565b905092915050565b6000604051905090565b600080fd5b600080fd5b610c8f81610aca565b8114610c9a57600080fd5b50565b600081359050610cac81610c86565b92915050565b600080fd5b7f4e487b7100000000000000000000000000000000000000000000000000000000600052604160045260246000fd5b610cef82610b70565b810181811067ffffffffffffffff82111715610d0e57610d0d610cb7565b5b80604052505050565b6000610d21610c72565b9050610d2d8282610ce6565b919050565b600067ffffffffffffffff821115610d4d57610d4c610cb7565b5b602082029050602081019050919050565b600080fd5b6000610d76610d7184610d32565b610d17565b90508083825260208201905060208402830185811115610d9957610d98610d5e565b5b835b81811015610dc25780610dae8882610c9d565b845260208401935050602081019050610d9b565b5050509392505050565b600082601f830112610de157610de0610cb2565b5b8135610df1848260208601610d63565b91505092915050565b60008060408385031215610e1157610e10610c7c565b5b6000610e1f85828601610c9d565b925050602083013567ffffffffffffffff811115610e4057610e3f610c81565b5b610e4c85828601610dcc565b9150509250929050565b600060208284031215610e6c57610e6b610c7c565b5b6000610e7a84828501610c9d565b91505092915050565b60008115159050919050565b610e9881610e83565b82525050565b600081519050919050565b600082825260208201905092915050565b6000819050602082019050919050565b610ed381610aca565b82525050565b6000610ee58383610eca565b60208301905092915050565b6000602082019050919050565b6000610f0982610e9e565b610f138185610ea9565b9350610f1e83610eba565b8060005b83811015610f4f578151610f368882610ed9565b9750610f4183610ef1565b925050600181019050610f22565b5085935050505092915050565b6000604082019050610f716000830185610e8f565b8181036020830152610f838184610efe565b90509392505050565b600063ffffffff82169050919050565b610fa581610f8c565b8114610fb057600080fd5b50565b600081359050610fc281610f9c565b92915050565b600060208284031215610fde57610fdd610c7c565b5b6000610fec84828501610fb3565b91505092915050565b600060408201905061100a6000830185610e8f565b6110176020830184610e8f565b9392505050565b7f4e487b7100000000000000000000000000000000000000000000000000000000600052602260045260246000fd5b6000600282049050600182168061106557607f821691505b6020821081036110785761107761101e565b5b50919050565b600073ffffffffffffffffffffffffffffffffffffffff82169050919050565b60006110a98261107e565b9050919050565b6110b98161109e565b82525050565b60006040820190506110d460008301856110b0565b6110e160208301846110b0565b9392505050565b7f4e487b7100000000000000000000000000000000000000000000000000000000600052603260045260246000fd5b7f4e487b7100000000000000000000000000000000000000000000000000000000600052601260045260246000fd5b600061115182610aca565b915061115c83610aca565b92508261116c5761116b611117565b5b828206905092915050565b600060029050919050565b600081905092915050565b6000819050919050565b6000602082019050919050565b60006111af82611177565b6111b98185611182565b9350836020820285016111cb8561118d565b8060005b8581101561120757848403895281516111e88582610bba565b94506111f383611197565b925060208a019950506001810190506111cf565b50829750879550505050505092915050565b6000602082019050818103600083015261123381846111a4565b905092915050565b600082825260208201905092915050565b7f7265717565737420646f65736e27742065786973740000000000000000000000600082015250565b600061128260158361123b565b915061128d8261124c565b602082019050919050565b600060208201905081810360008301526112b181611275565b9050919050565b6000819050919050565b6112cb816112b8565b82525050565b600067ffffffffffffffff82169050919050565b6112ee816112d1565b82525050565b600061ffff82169050919050565b61130b816112f4565b82525050565b61131a81610f8c565b82525050565b600060a08201905061133560008301886112c2565b61134260208301876112e5565b61134f6040830186611302565b61135c6060830185611311565b6113696080830184611311565b9695505050505050565b60008151905061138281610c86565b92915050565b60006020828403121561139e5761139d610c7c565b5b60006113ac84828501611373565b91505092915050565b60006040820190506113ca6000830185610ad4565b6113d76020830184611311565b9392505050565b60006040820190506113f36000830185610ad4565b81810360208301526114058184610efe565b9050939250505056fea2646970667358221220bd4234b6834d34989db6ca71ec9be9af6406b2363758020b9e1868f3c3b55cce64736f6c63430008130033",
  "linkReferences": {},
  "deployedLinkReferences": {}
}